:020000022000DC
:10600000000004204DE402008DE402008FE4020051
:1060100091E4020093E4020095E402000000000015
:1060200000000000000000000000000089080300DC
:1060300099E4020000000000A90803009DE40200AA
:106040008D0903009FE402009FE402009FE4020028
:106050009FE402009FE40200A1E402009FE402002A
:106060009FE402009FE402009FE402009FE402001C
:106070009FE402009FE402009FE402009FE402000C
:106080009FE40200D90503009FE402009FE40200A0
:106090009FE402009FE402009FE402009FE40200EC
:1060A0009FE402009FE402009FE402009FE40200DC
:1060B0009FE402009FE402000000000000000000D6
:1060C0009FE402009FE402009FE40200790A0300BB
:1060D0009FE402009FE402009FE40200A9A30200E3
:1060E0009FE402009FE402009FE402000000000021
:1060F000000000009FE4020000000000F10A03001D
:10610000000000000000000000000000000000008F
:10611000000000000000000000000000000000007F
:10612000000000000000000000000000000000006F
:10613000000000000000000000000000000000005F
:10614000000000000000000000000000000000004F
:10615000000000000000000000000000000000003F
:10616000000000000000000000000000000000002F
:10617000000000000000000000000000000000001F
:10618000000000000000000000000000000000000F
:1061900000000000000000000000000000000000FF
:1061A00000000000000000000000000000000000EF
:1061B00000000000000000000000000000000000DF
:1061C00000000000000000000000000000000000CF
:1061D00000000000000000000000000000000000BF
:1061E00000000000000000000000000000000000AF
:1061F000000000000000000000000000000000009F
:10620000F1EE103A43F08073E1EE103A704700BFB0
:1062100010B5054C237833B9044B13B10448AFF3E0
:1062200000800123237010BD58630020000000008F
:10623000F854030008B5034B1BB103490348AFF3FF
:10624000008008BD000000005C630020F8540300DB
:10625000154B002B08BF134B9D46A3F5803A002138
:106260008B460F461348144A121A0BF0DBFB0F4BF8
:10627000002B00D098470E4B002B00D098470020F1
:10628000002104000D000D48002802D00C48AFF397
:1062900000800BF05DFB200029000BF095F80BF05F
:1062A00031FB00BF000008000000042000000000D7
:1062B0000000000058630020388E0020000000001D
:1062C00000000000704700BF204810B54FF4E131D6
:1062D000044603F0F5FC01E008F024F9204603F041
:1062E00007FD03460A20002BF6D01848184904463B
:1062F0000AF0ECFF20460AF0C9FF164920460AF0D2
:10630000E5FF01E008F00EF9204603F0BBFB034671
:106310000120002BF6D00D480AF0B8FF0E4803F01C
:10632000BDF80E4909480AF083FF012008F0FAF889
:10633000094800F059F80A4904480AF0C7FF01204B
:1063400008F0F0F8BDE810400AF0A4BE1C7400206C
:10635000B84C0300F84C030074630020384D030070
:10636000484D0300704700BF10B504460BF06CF8B1
:10637000204610BD38B50A4B04460D46442240F86D
:106380000C3B00210BF04EFB0023A560237104F1B0
:106390005401012008F088FB2065204638BD00BF6D
:1063A000784D030070B504460E46006D4FF0FF3186
:1063B00008F08AFD257955B98EB1A660314604F101
:1063C0000C0002F0C5FEB0FA80F56D0925710023BE
:1063D000206D1A46194608F0B7F9284670BDA66820
:1063E000002EF4D0EAE700BF70B505464FF0FF314C
:1063F000006D08F069FD2B7993B1002305F10C06BF
:106400002B71304602F0B8FF044680B10023286D9E
:106410001A46194608F098F9B4FA84F0400970BD9C
:10642000A96805F10C0002F033FA0446EEE7A9680A
:10643000304602F02DFA04460028E7D1A96830461C
:1064400002F086FE04460028E0D101232B71DDE72F
:106450002DE9F04F85B0DDE90E4B109F81460D46CA
:1064600090461E46002F63D0B8F1000F03D0D8F835
:106470000030B34249D0D9F800002B689E422BD09F
:106480004369B4FBF3F203FB1242BAB9BB4215D81D
:10649000B7FBF3F203FB127AA7EB0A030093039313
:1064A000436822461F4631465B46B84788B9039B7E
:1064B00057469B441C44002FD6D139E00093A21AC2
:1064C000C5E90062D0F804A0AB683146D047002887
:1064D000CAD005B0BDE8F08F69684369A142D0D841
:1064E000CA18A242CDD9A2EB040ABA45AB6828BFAC
:1064F000BA46611A524658461944BF1A54440BF022
:1065000069FAD344002FAFD112E0D8F80430A34287
:10651000B1D8D9F8000082691A44A242ADD9A2EBE1
:10652000040ABA45D8F8081028BFBA46E31AE1E7CA
:10653000002005B0BDE8F08F2DE9F04F074687B089
:106540000D4672B30368D1F800B090469A69D1E95C
:1065500001104AB3013A01F101098618A9EB0009BB
:10656000441E4FF0010A08E014F8012F9DF817307F
:106570009A4223D1A6423B6814D01A6A934509EB8C
:10658000040320D20DF11702CDE90032CDF808A0A6
:106590005B46002241463846FFF75AFF0028E3D009
:1065A00009DB3B68A8689A69FF210BF03BFA4FF0C2
:1065B000FF332B60002007B0BDE8F08F6FF0330091
:1065C00007B0BDE8F08F034B034A044812210BF0DB
:1065D00067F900BF804D0300184F0300A04D030072
:1065E0002DE9F04F89B00746149C129D8B469246C8
:1065F0001E46002C55D0DBF80030B3425CD001338E
:1066000040F0A18038688269B5FBF2F302FB1353B6
:10661000002B4AD1A24248D8B4FBF2F302FB134349
:106620000593E31A009304938468139B2A4631462A
:10663000A04700287ED1BAF1000F29D0049B3BB3BC
:10664000139B5C1E049B04EB0309139B05F10108DB
:10665000A8EB030807E014F8012F9DF81F309A42B9
:1066600066D14C4514D03B681A6A964208EB040385
:1066700063D2012202920DF11F02CDE90032514690
:10668000334600223846FFF7E3FE0028E3D051DB13
:10669000139A049B059C1146194413911D44002C28
:1066A000A9D1002009B0BDE8F08FEB1ACBE9006357
:1066B000DBF80030B342A2D1DBF80410A9429ED827
:1066C0003A6892690A44AA4299D9A2EB0508A04502
:1066D000DBF8080028BFA046691A0844424613990F
:1066E0000BF078F938681399826945444144B5FB49
:1066F000F2F302FB1353A4EB08041391002B7FF475
:1067000078AFDBF800104B1C3FF473AF0092DBE96D
:106710000123D0F80880C04760B952465946384630
:10672000FFF70AFF00283FF464AF09B0BDE8F08F1F
:106730006FF0330009B0BDE8F08F064B064A0748FA
:1067400012210BF0ADF8064B064A0448B7210BF0B6
:10675000A7F800BF804D0300184F0300A04D0300B1
:106760000C4E0300284F03002DE9F04F0446D2E9F8
:10677000003091B04FF0010B0A9300230B9006916B
:1067800004F114080DF128090593236859F8045BF6
:106790001B6A9D427BD210230DF1300A0022CDE905
:1067A00001A300922B4641462046FFF751FE0028E8
:1067B00039D1059B002B60D10D9B23F00043132B97
:1067C0004FD92268D26993424BD84FF0FF3309A8C2
:1067D00010225146099302F0EDFD0D9B23F000437A
:1067E000102B28D0CDF81C9010260DF123079946C8
:1067F00007E001360122394609A802F0DBFDB14568
:1068000017D023681B6A9D4241D20123CDE9017351
:1068100000962B46002241462046FFF719FE00282D
:10682000E7D0DDF81C9010F1340F1AD011B0BDE89C
:10683000F08FDDF81C90099B9BB99AE80F000BF0D4
:10684000010610AF07EB860C069F1026FE603E4641
:106850007D601C365CF8185CBD6086E80F00012383
:106860000593BBF1020F0FD1059B002B14BF002035
:106870006FF0330011B0BDE8F08F069A0C9BD2691F
:106880009B1A002B98DAECE74FF0020B7DE7034BE5
:10689000034A044812210BF003F800BF804D0300A7
:1068A000184F0300A04D03004368013337D02DE992
:1068B000F0438368013383B0044628D015460E4662
:1068C0004FF000084FF001096A462946CDE90089DA
:1068D000FFF74AFFE0B905F124086B6A591C16D08E
:1068E000AF6A7A1C13D0D6F800C09C4513D0D6F8F6
:1068F00004E0BE450FD073454246294620460AD0E3
:10690000BC4508D0FFF730FF0028E6D000E00020AB
:1069100003B0BDE8F083012003B0BDE8F0830020A0
:10692000704700BF2DE9F041D1F820C00C46C9687E
:106930002CF00043043B01F10C069E4284B0054656
:1069400017461FD904F12408102612E042462146BA
:106950002846FFF709FF90B9D4F820C0A169E66086
:106960002CF00043043B14311B2BA1614FF01001AC
:1069700008D8BCF1000FE9DB39606FF0010004B00A
:10698000BDE8F0812A46636852F8140B066AB342E8
:1069900007F104001AD20C26CDE900100296114628
:1069A00028460022FFF754FD0028E8D17B79BA7908
:1069B000FD79A16904331344E2683A602B441A4418
:1069C0000B44E260A36104B0BDE8F081024B034ACE
:1069D000034812210AF064FF804D0300184F0300A2
:1069E000A04D0300F0B593B000260D46012707A97E
:1069F0006A46CDE900670446FFF7B6FE064610B1C9
:106A000021E0831C22D1109B01331CD0119B013348
:106A100019D010AA07A92046FFF7A6FEB0B903AA0D
:106A200007A92046FFF77EFF0028EAD19DF9103024
:106A3000002B4FF00802294605A8F0DB0AF0BCFF46
:106A40000028ECD10126304613B0F0BD0646304692
:106A500013B0F0BD2DE9F047164600240122C6E927
:106A60000942824688461D4606F124094A463146B7
:106A70005046FFF779FE074668B92A463146504628
:106A8000FFF750FF50B1831C1FD1736A013302D04E
:106A9000B36A0133EAD13846BDE8F0872C7904F0B7
:106AA0007004202CE9D1AB68D8F80020934208D0BC
:106AB000E868D8F80410884203D08B4201D08242A3
:106AC000DBD101273846BDE8F0870746E3E700BF82
:106AD0002DE9F04F8B469DB00BF1040304930BF1AD
:106AE0000C03CDE9053B016B04464FF0010800257E
:106AF000D4E90D3010E05A09E66B01385F1CA06341
:106B0000676356F822C003F01F0208FA02F212EA85
:106B10000C0F00F027813B469942ECD1002800F091
:106B2000F2812268E36AD2E908621944904228BFE0
:106B30001046B1FBF6F306FB13112063E162E06B34
:106B40006563D20800210AF06DFF6368013300F02D
:106B50005781A368013300F05381002201230025EF
:106B6000CDE9082304F1140701222E46D4F800C011
:106B7000E16ADCF82030206B591A0E44B6FBF3F5BD
:106B800003FB1565854210D26909E26B05F01F050C
:106B900052F8213008FA05F51D4342F82150DCF87F
:106BA0002030E16A099A206B591A0A44B2FBF3F1CA
:106BB00003FB112383420AD25809E16B03F01F0340
:106BC00051F8202008FA03F3134341F8203008AAB3
:106BD00011A92046FFF7C8FD002840F00E810C25C2
:106BE000149A24E02068129B006A834280F01A8283
:106BF0000EA9CDE900210295002239462046FFF773
:106C000027FC002840F0F9809DF839209DF83A30A3
:106C10009DF83B60149904321A449DF83830324490
:106C200003F070030A44102B149200F0EB80199BC0
:106C300023F00043043B02F10C009842D2D9DDE975
:106C40001A62701CCDE9086201D0511C8ED1D4F8B3
:106C50000C904D46B9F1000F00F0DE81EB69DA03CC
:106C600040F156816F69002F00F05281D4F800A0E6
:106C7000DAF81C60013F083EB742C0F0CF81B7FB95
:106C8000F6F001380AF08EFC0230A7EB8002B2FB6E
:106C9000F6F6D4F830E0E16A2B69079505F12C008F
:106CA0000546DAF82020704604F114098E460146A4
:106CB0009818A0EB0E0EBEFBF2F002FB10E28A4227
:106CC0000AD25709E06B02F01F0250F8271008FAA9
:106CD00002F20A4340F82720002E00F01781DAF86C
:106CE000202006F00107C7F1020A93424FEA8A000A
:106CF00080F098810BA90022CDE90110009249464D
:106D00002A462046FFF7A4FB002876D10AF1FF3C73
:106D1000D4F800A013E0BBFBF2F302FB13B38B42E9
:106D20004FF0010014D24FEA531EE16B03F01F0332
:106D300051F82E2000FA03F3134341F82E30D4F813
:106D40002CE0DAF820200B9B216BA2EB0E0B9B446E
:106D50006045E0DB1CAB03EB8C0C023F5CF8443C71
:106D60003E44A5E72068E26A016A1344B3FBF1F2EE
:106D700001FB1233049A42F8043BD4E90C13994204
:106D8000049207D10FE0A26B0133013A8B42C4E9B0
:106D90000D3208D05D0903F01F0256F8255008FA9D
:106DA00002F22A42EFD1DDE9043293427FF49FAE32
:106DB000DDF818B0006ADBF8043083420BF11C02E6
:106DC00004F1140180F02E81042501920022204656
:106DD00002950092FFF73CFB002840F08B80DBF827
:106DE0001C304FF0FF32CBE909221420013310216F
:106DF000CBE90730CBF80C1000201DB0BDE8F08FB8
:106E0000216B75E6109B002B3FF411AFD4F800A066
:106E1000DAF81C6003F1FF3BA6F10809CB4570D3FB
:106E2000BBFBF9F001380AF0BDFB861CABEB860614
:106E3000B6FBF9F60F9BE16ADAF82020D4F830E0CF
:106E40009818401AB0FBF2F102FB110272450BD206
:106E50004FEA521CE16B02F01F0251F82C0008FAB5
:106E600002F2024341F82C20002E3FF4B9AEDAF8CA
:106E7000202006F00109C9F1020A93424FEA8A0074
:106E800080F0D0800BA90022CDE901100092394694
:106E90002046FFF7DDFA0028AFD10AF1FF3CD4F815
:106EA00000A013E0BBFBF2F302FB13B373454FF0FA
:106EB000010014D24FEA531EE16B03F01F0351F897
:106EC0002E2000FA03F3134341F82E30E16ADAF87A
:106ED00020200B9BD4F830E0A2EB010B9B446045D3
:106EE000E0DB1CAB03EB8C0CA9F102095CF8443C21
:106EF0004E44A5E710F1340F3FF471AF1DB0BDE86B
:106F0000F08F064696E76FF01B0076E7079DEB696A
:106F10009B037DD52F6A002F7AD0D4F800A0DAF831
:106F20001C60013F083EB7427AD3B7FBF6F0013848
:106F30000AF038FB0230A7EB8003B3FBF6F6D4F877
:106F400030E0E16A6B6A079505F12C000546DAF836
:106F50002020704604F114098E4601469818A0EBD3
:106F60000E0EBEFBF2F002FB10E28A420AD2570973
:106F7000E06B02F01F0250F8271008FA02F20A43F1
:106F800040F82720002E42D0DAF8202006F0010732
:106F9000C7F1020A93424FEA8A0043D20BA90022AA
:106FA000CDE90110009249462A462046FFF750FAE3
:106FB00000287FF422AF0AF1FF3CD4F800A013E0D0
:106FC000BBFBF2F302FB13B38B424FF0010014D270
:106FD0004FEA531EE16B03F01F0351F82E2000FA15
:106FE00003F3134341F82E30D4F82CE0DAF82020D4
:106FF0000B9B216BA2EB0E0B9B446045E0DB1CABB3
:1070000003EB8C0C023F5CF8443C3E44A6E7079D32
:107010002D68002D7FF422AE216B68E5002638E64E
:1070200000268CE7024B034A034812210AF038FC81
:10703000804D0300184F0300A04D03002DE9F04FD1
:107040002DED028B9BB0012504460491A9464FF01B
:107050000008D4E90D31D4F830C00FE05A09E76BCD
:107060000139581CA163606357F8226003F01F02C6
:1070700005FA02F2324200F02A8103469C45EDD126
:10708000002900F052822368E66AD3E90802B4447A
:10709000914228BF1146BCFBF0F300FB13C32163F0
:1070A000E362E06BC4F83480D20800210AF0BAFC35
:1070B00063680133CDD0A3680133CAD00022012315
:1070C000CDE906230122002004F114079646226828
:1070D000E36A116A266BCB1A03EB000CBCFBF1F0E0
:1070E00001FB10C0864210D94609E16B00F01F0079
:1070F00051F8263005FA00F0184341F82600D4E98B
:107100000B36116ADDF81CE0CB1A7344B3FBF1F2C5
:1071100001FB1233B3420AD25809E16B03F01F039B
:1071200051F8202005FA03F3134341F8203006AA52
:107130000FA92046FFF718FB002840F0E9804FF028
:107140000C08129A0CAE23E02168109B096A8B424E
:1071500080F0F5810092CDE9016800223946204691
:10716000FFF776F9002840F0D3809DF831209DF894
:1071700032109DF833C0129B04320A449DF830103F
:1071800062441A4401F07003102B129200F0C58083
:10719000179B23F00043043B02F10C019942D3D921
:1071A000DDE9180E411CCDE9060E02D0BEF1FF3F0D
:1071B0008DD1D4F80C804646B8F1000F3FF447AFAC
:1071C000F369DA0340F128817769002F00F0248108
:1071D000D4F800A0DAF81C30013FA3F108084745B5
:1071E000C0F0A881B7FBF8F001380AF0DBF90230F3
:1071F000A7EB8007B7FBF8F704F11400E16AD4F8B5
:1072000030C0DAF8202033690596834606F12C0059
:1072100008EE100A0E4661469818A0EB060EBEFB5B
:10722000F2F002FB10E28A420BD2E06B4FEA521CF2
:1072300002F01F0150F82C2005FA01F10A4340F832
:107240002C20002F00F0E680DAF8202007F001085B
:10725000C8F1020A93424FEA8A0080F0708109A9BE
:107260000022CDE901100092594618EE102A20465E
:10727000FFF7EEF800284BD10AF1FF3CD4F800A04C
:1072800012E0BEFBF2F302FB13E38B424FF001006E
:1072900012D25E09E16B03F01F0351F8262009FAB0
:1072A00003F3134341F82630E66ADAF82020099BFD
:1072B000216BA2EB060E9E446045E2DB1AAB03EBAA
:1072C0008C0CA8F102085CF8443C4744A4E7216810
:1072D000E26A096A1344B3FBF1F201FB1233049A28
:1072E0001360D4E90C03834211D0012506E0A26BA0
:1072F0000133013A8342C4E90D3208D0590903F041
:107300001F0257F8211005FA02F20A42EFD10020BD
:107310001BB0BDEC028BBDE8F08F0E9E002E3FF43B
:1073200011AFD4F800A0DAF81C20013EA2F1080B3E
:107330005E450AD3B6FBFBF001380AF033F90230A0
:10734000A6EB8003B3FBFBF31846E16AD4F830C028
:107350000D9BDAF8202008EE107A8E46074661462B
:107360009818A0EB0E0EBEFBF2F002FB10E28A4270
:107370000AD25609E06B02F01F0250F8261005FAF7
:1073800002F20A4340F82620002F00F0D580DAF8F8
:10739000202007F00106C6F1020A93424FEA8A0054
:1073A00080F0CD8009A90022CDE90110009218EEED
:1073B000101A2046FFF74CF80028A9D10AF1FF3C2B
:1073C000D4F800A013E0BBFBF2F302FB13B38B4233
:1073D0004FF0010014D24FEA531EE16B03F01F037C
:1073E00051F82E2009FA03F3134341F82E30D4F854
:1073F0002CE0DAF82020099B216BA2EB0E0B9B44BA
:107400006045E0DB1AAB03EB8C0C023E5CF8443CBD
:107410003744A5E7059EF3699B0340F18180376AF5
:10742000002F7DD0D4F800A0DAF81C20013FA2F193
:10743000080847457CD3B7FBF8F001380AF0B2F8EA
:107440000230A7EB8007B7FBF8F704F11400E16AFC
:10745000D4F830C0DAF82020736A0596834606F126
:107460002C0008EE100A0E4661469818A0EB060E96
:10747000BEFBF2F002FB10E28A420BD2E06B4FEA55
:10748000521C02F01F0150F82C2005FA01F10A43AA
:1074900040F82C20002F42D0DAF8202007F0010815
:1074A000C8F1020A93424FEA8A0048D209A9002291
:1074B000CDE901100092594618EE102A2046FEF739
:1074C000C7FF00287FF424AF0AF1FF3CD4F800A0E6
:1074D00012E0BEFBF2F302FB13E38B424FF001001C
:1074E00012D25E09E16B03F01F0351F8262009FA5E
:1074F00003F3134341F82630E66ADAF82020099BAB
:10750000216BA2EB060E9E446045E2DB1AAB03EB57
:107510008C0CA8F102085CF8443C4744A5E7059EA2
:107520003668002E7FF44CAE91E56FF01B00EFE65D
:1075300000278AE700275FE618EE107A01E6034B82
:10754000034A044812210AF0ABF900BF804D030042
:10755000184F0300A04D03002DE9F04F2DED028BD5
:10756000C9B004462C2200211CA80AF05BFA4FF097
:107570000043282227A8002124930AF053FA236805
:107580001B6A01223192002B00F0C98100274FF0C5
:107590000C09319B013300F0B18130AA27A92046A4
:1075A000FFF7E2F80546002840F00C81249B002BF1
:1075B000C0F20E816368013300F04E81A36801338D
:1075C00000F04A8132AE32460CAB25A92046FFF7C7
:1075D00041FA0028C0F2F58000F03E810E9B259A0A
:1075E0000F982699934200F090818B4200F093818E
:1075F000DDE91D51239A269020682593013200234E
:10760000CDE91D150B9505932392C3680A91984700
:107610004FF0FF380546F0B115F1340F40F0D2803D
:107620000A9BC4F82080012B40F279810B9B012B2F
:1076300040F275811DA92046FFF700FD0546002890
:1076400040F0C08020681D9901230593C3689847C6
:1076500005460028E0D123AF0DF1500AA1461022C3
:1076600039465046CDF8508001F0A4FE59F8202B41
:107670001D9B126A934280F015821026CDE90057B7
:107680002A46029649462046FEF7AAFF05460028EC
:10769000C2D1249B23F00043043B102B32D904F1C8
:1076A000140B3DAF22680B9B126A934280F0F48169
:1076B0000122CDE901720096002259462046FEF7CC
:1076C000C7FE054600287DD101223946504601F00B
:1076D00071FE22681D9B126A934280F0E3810122B1
:1076E000CDE9017200962A4649462046FEF778FF0A
:1076F0000546002890D1249B23F000430136043B2B
:107700009E42CFD322681D9B126A934280F0CA81A9
:1077100004220292CDE9006A494600222046FEF783
:107720005FFF054600287FF477AF216AC4F8148014
:107730004A1C12D02068A36A826900928568626A36
:10774000A847054600287FF467AF2368A06A9A69B6
:10775000FF210AF067F9C4F8208020680369984780
:10776000054600287FF458AF249EDDF874B0CDF8AC
:10777000F48026F0004604F11403043E08EE103AAB
:1077800000F0968107460DF1400908E0013701221B
:1077900049463DA801F00EFEBE4240F289812368B1
:1077A0001B6A9B4580F078810123CDE9019318EE97
:1077B000101A00975B4600222046FEF749FE00287B
:1077C000E4D00546284649B0BDEC028BBDE8F08FF9
:1077D00032AE4FF00008324627A92046FFF7A2F844
:1077E000F0B1831CEDD10DF19C0CBCE80F001CAE78
:1077F0000FC6BCE80F000FC69CE8070086E807002C
:1078000023681B6A01379F4280F08980309B0133D7
:107810007FF4BFAE284649B0BDEC028BBDE8F08FC7
:107820009DF9CC309DF8CC20002BD4DA636801336D
:1078300041D0A36801333ED034A92046FFF7D2F8E7
:107840000028BEDB35D0324627A9204600F03AFC9E
:107850000028C0D00546B5E7DDE93050DDE91D213F
:10786000239B1D91CDE925500133239308911E924E
:1078700009924FF0000801262068C3689847054622
:1078800000284FD015F1340F9CD1089B4FF0FF32E8
:10789000012B226243D9099B012B40D91DA9204607
:1078A000FFF7CCFB054600288CD11D994FF001084D
:1078B000E2E79DF8CC20DDF8C8E09DF8CFC0CDF818
:1078C000F89002F07F020EF10C0033A9CDE93F19C8
:1078D0008DF8CC20419001233DAA27A92046CDF860
:1078E0000C81CDF8F4E0CDF808C1CDF810C100F05E
:1078F000F9F900283FF46FAF054663E700252846F5
:1079000049B0BDEC028BBDE8F08F88423FF461AF17
:107910008B427FF46DAE82427FF46AAE59E76FF01E
:1079200033054FE723AFA2464FF0FF33102239460D
:1079300007A8079301F03EFD5AF8202B1D9B126A01
:10794000934280F0AF804FF01009CDE900572A46EE
:10795000CDF8089051462046FEF742FE0546002825
:1079600090D1249B23F00043043B102B34D904F125
:10797000140B10AF2268099B126A934280F08C802E
:10798000CDE90176CDF80090002259462046FEF759
:107990005FFD054600287FF415AF0122394607A890
:1079A00001F008FD22681D9B126A93427AD22A4692
:1079B000CDE90176CDF8009051462046FEF710FE45
:1079C000054600287FF45EAF249B23F0004309F1B5
:1079D0000109043B9945CDD322681D9B126A93424D
:1079E00060D2042207A9CDE90091029251460022FB
:1079F0002046FEF7F5FD054600287FF443AF216AD7
:107A00004FF0FF37B942676111D02068A36A8269DD
:107A100000928568626AA847054600287FF432AF65
:107A20002368A06A9A69FF2109F0FCFF2762206899
:107A300003699847054600287FF424AF249FDDF8AA
:107A400074B027F000474FF0FF3204F11403043FF5
:107A500008EE103A109245D081460DF1F40A08E084
:107A600009F101090122514610A801F0A3FC4F457C
:107A700038D923681B6A9B450ED2CDE901A618EEC2
:107A8000101ACDF800905B4600222046FEF7E0FC7D
:107A90000028E5D0054695E68E4B8F4A8F48122187
:107AA00009F0FEFE8B4B8E4A8C489C2109F0F8FEB3
:107AB0003D9A149B9A427FF4B3AD059B002B30D1C5
:107AC0002369002B3FF47EAE5C681D9A944271D00E
:107AD00099681E9881426DD084426BD08A4269D0E9
:107AE0001B68EEE7109A079B9A427FF4CEAEB8F17E
:107AF000000F40F082802369002B3FF463AE5C6886
:107B00001D9A944200F0C48099681E98814200F04A
:107B1000BF80844200F0BC808A4200F0B9801B68BC
:107B2000EAE7636801334ED0A36801333DAE0AAF84
:107B30004BD03246394610AB2046FEF78BFF00286B
:107B4000FFF63FAE41D0DDE91D03109F149731468B
:107B50000C370C2612909DF847001897139311AF1D
:107B600015961796199000261B9052460123204621
:107B700016971A9600F0B6F800287FF422AE0A98FD
:107B8000636898421AD00B9AA1688A4216D088423C
:107B900014D0934212D00122013384F840208FD0B8
:107BA000A36801338CD02046FFF7D6FC002887D08D
:107BB000054607E65A601E9A9A6091E7DDE91D3294
:107BC000C4E90132E7E73DAE0AAF39463246204606
:107BD000FEF76AFE0028FFF6F4AD3FF471AF3146C0
:107BE000DDE91D60002347901A462046469600F0C6
:107BF00079F800283FF464AFDAE76368013350D0C6
:107C0000A36801333DAE4DD0324610AB08A92046E3
:107C1000FEF720FF0028FFF6D4AD43D0DDE91D02BA
:107C2000109B14930C33189312900C2311A89DF8F9
:107C3000477013923146159300261793169001232F
:107C400014AA204619971B971A9600F04BF80028A3
:107C50007FF4B7AD0898636898421DD0099AA1686F
:107C60008A4219D0884217D0934215D0012201339D
:107C700084F840203FF43FAFA36801333FF43BAFAB
:107C80002046FFF769FC00283FF435AF054699E52B
:107C90005A601E9A9A6042E7DDE91D32C4E901325A
:107CA000E4E73DAE08A932462046FEF7FDFD002878
:107CB000FFF687AD3FF41FAF3146DDE91D600023BD
:107CC00047901A462046469600F00CF800283FF4EC
:107CD00012AFDBE7804D0300184F0300A04D0300F7
:107CE000284F03002DE9F04F2DED028BCE690D4694
:107CF000D1E90141A5B0013690462A1D696082464E
:107D0000EE61AC600892059383B11E46D8F804007A
:107D1000D8F80C302A6A1B1A022E1A4405D1D8F85A
:107D20001C70D8F814603A44921B2A62DAF80000FA
:107D3000CDF818800023CDE90B140993C368984748
:107D40000446E0B114F1340F3DD10B9B4FF0FF32EC
:107D5000012BCAF8202034D90C9B012B31D908996A
:107D60005046FFF76BF9044668BBDAF80000696813
:107D700001230993C368984704460028E2D105F11E
:107D80001C07D0464FF0FF331022394611A811933B
:107D900001F010FB58F8202B6B68126A934280F0B8
:107DA0000D811026CDE900472246029641465046F5
:107DB000FEF716FC834660B110F1340FC5D00446BF
:107DC00001E06FF03304204625B0BDEC028BBDE826
:107DD000F08F2B6A23F00043043BB3426BD90AF1C6
:107DE000140308EE103A37460DF1640934E0DAF86E
:107DF00000200C9B126A934280F0E6800122CDE9BC
:107E0000019218EE101A009700225046FEF720FB50
:107E100004460028D7D10122494611A801F0CAFA28
:107E2000DAF800206B68126A934280F0C780012262
:107E3000CDE901920096224641465046FEF7D0FB1E
:107E4000044600287FF47EAF013701362B6A23F009
:107E50000043043B9E422ED2059B5B45C7DD069A3C
:107E60004FEA0B1302EB0B11D3580791BB42BED163
:107E70000C4611A8D1E9021201F09CFADAF80020B0
:107E80006B68106AE168A268834280F09780CDE950
:107E900001210096002241465046FEF7A1FB044610
:107EA00000287FF44FAF079B5A68DB680BF1010B8A
:107EB00017441E44CAE7DAF800206B68126A93423E
:107EC0007CD2042211A9CDE9006102924146002230
:107ED0005046FEF785FB044600287FF433AFDAF8FE
:107EE00020104FF0FF339942CAF8143019D0DAF855
:107EF0000000DAF82830826900928468DAF82420D9
:107F0000A047044600287FF41DAFDAF80030DAF805
:107F100028009A69FF2109F085FD4FF0FF33CAF868
:107F20002030DAF8000003699847044600287FF4FF
:107F300009AF2B6AD5F8048023F000434FF0FF32DD
:107F4000B3F1040919920AF1140B1DD007460DAEC6
:107F500007E001370122314619A801F02BFAB94593
:107F600012D0DAF800301B6A98452DD20123CDE9F2
:107F7000016300974346002259465046FEF768FACF
:107F80000028E6D004461EE7199A119B9A427FF416
:107F9000DCAE099B13BBDAF81030002B3FF413AFB3
:107FA0005E686A68964215D09968A868814211D0C7
:107FB00086420FD08A420DD01B68EEE73D4B3E4A09
:107FC0003E489C2109F06CFC3A4B3D4A3B4812214B
:107FD00009F066FC5A60AA689A60EDE7DAF80430A6
:107FE000013347D0DAF80830013319AE0BAF43D074
:107FF000324639460DAB5046FEF72CFD0028C1DB5A
:108000003AD0D5E901030D9F119731460C370C2664
:108010000F909DF83B00159710930EAF1296149693
:1080200016900026189011AA012350461397179610
:10803000FFF758FE0028A5D10B98DAF804309842D3
:1080400031D00C9ADAF808108A422CD088422AD013
:10805000934228D0012201338AF840209BD0DAF8DD
:108060000830013397D05046FFF776FA002892D0B7
:108070000446A8E619AE0BAF394632465046FEF725
:1080800013FC0028FFF67EAF85D03146D5E90160AC
:10809000002323901A4650462296FFF723FE00281D
:1080A0003FF479AFE4E76B68CAF80430AA68CAF80D
:1080B0000820CFE7804D0300284F0300A04D0300A8
:1080C000184F03002DE9F04F2DED028B1546537923
:1080D0009279EE790433B1B013440A6A33440C4602
:1080E000059322F000411433994204F104038346BE
:1080F000079365D0D4E901012E68E3690696059ED1
:108100000F90921BC4E901100133DBF800000E91BF
:10811000C4E9073200230893C36809959847A0462D
:108120000646E8B116F1340F3CD10E9B4FF0FF32FA
:10813000012BCBF820203BD90F9B012B38D9079975
:108140005846FEF77BFF064660BBDBF80000D8F818
:10815000041001230893C368984706460028E1D11C
:1081600008F11C04DA464FF0FF331022214612A812
:10817000129301F01FF95AF8202BD8F80430126A34
:10818000934280F04B821025CDE90064324602957F
:1081900051465846FEF724FA044620B310F1340F36
:1081A000C3D00646304631B0BDEC028BBDE8F08F3F
:1081B0006FF03306304631B0BDEC028BBDE8F08F76
:1081C00019461AAAFEF770FB061EEBDB229B002B5A
:1081D000C0F2E0806B79A979EA7904330B44134447
:1081E0000593226A86E7D8F8203023F00043043B49
:1081F000AB4242D90BF1140308EE103A2F460DF1B1
:1082000094091CB9069BBB4200F0A680DBF8002055
:108210000F9B126A934280F0FB810122CDE901920B
:1082200018EE101A009700225846FEF711F906467C
:108230000028B7D10122494612A801F0BBF8DBF8AB
:108240000020D8F80430126A934280F0E7810122BE
:10825000CDE901920095324651465846FEF7C0F9E5
:10826000064600287FF45EAF01370135D8F820308C
:1082700023F00043043BAB42C3D8DBF80020D8F81E
:108280000430126A934280F0C981042212A9CDE918
:1082900000510292514600225846FEF7A1F90646C7
:1082A00000287FF43FAFDBF820104FF0FF339942F6
:1082B000CBF8143019D0DBF80000DBF828308269E5
:1082C00000928468DBF82420A047064600287FF44B
:1082D00029AFDBF80030DBF828009A69FF2109F0AC
:1082E000A1FB4FF0FF33CBF82030DBF8000003692F
:1082F0009847064600287FF415AFD8F82030D8F804
:10830000047023F0004A4FF0FF32BAF1040A2592BC
:108310000BF1140900F00D8105461AAC08E0013597
:108320000122214625A801F045F8AA4500F0018167
:10833000DBF800301B6A9F4280F06A810123CDE99F
:10834000014300953B46002249465846FEF780F817
:108350000028E4D0064625E72246214612A801F06F
:1083600029F8DBF80020D8F80430126A934280F034
:108370005581CDE901440095224651465846FEF705
:108380002FF9064600287FF4CDAEDDE90523012450
:108390009F186BE7226A2199D4E9090462F0004230
:1083A000134023904A1CDDE91B01CDE91B100D9001
:1083B000DBF800002494CDE92123002305930C91E0
:1083C000C36898474FF0FF3801270646F8B116F109
:1083D000340F7FF4E7AE0C9BCBF82080012B7FF6A7
:1083E000E7AE0D9B012B7FF6E3AE1BA95846FEF7C7
:1083F00025FE064600287FF4D5AEDBF800001B9969
:1084000001230593C368984706460028DFD121ADB4
:10841000D946102229460AA8CDF8288000F0CAFFC4
:1084200059F8202B1B9B126A934280F0F78010248E
:10843000CDE900653246029449465846FEF7D0F829
:1084400006460028C3D1229B23F00043043B102B97
:1084500033D90BF1140A0BADDBF800200D9B126A27
:10846000934280F0D580CDE9015700940022514617
:108470005846FDF7EDFF064600287FF493AE012233
:1084800029460AA800F096FFDBF800201B9B126A21
:10849000934280F0C3803246CDE9015700944946AB
:1084A0005846FEF79DF80646002890D1229B23F0FF
:1084B00000430134043B9C42CED3DBF800201B9BDD
:1084C000126A934280F0AA8004220AA9CDE90041F1
:1084D0000292494600225846FEF782F806460028D6
:1084E0007FF475AFDBF82010CBF814804B1C17D04D
:1084F000DBF80000DBF82830826900928468DBF842
:108500002420A047064600287FF461AFDBF8003046
:10851000DBF828009A69FF2109F084FACBF8208063
:10852000DBF8000003699847002800F0D180064678
:108530004DE7259A129B9A427FF4F7ADDDE90835A5
:108540004446002B70D1DBF810301A4672B1D2F8D5
:1085500004C061688C4557D09068A768B84253D072
:10856000BC4551D081424FD01268EFE7DBF80C20B8
:1085700022B34FF0FF370BE0D2F808E0D4F808C080
:10858000E64509D0614507D0704505D01268AAB10B
:10859000516860688142EFD1D1682868814230D04B
:1085A000F4D9687995F806E095F807C0043070446E
:1085B0006044091AD1601268002AE9D163B9F1E573
:1085C0009F68A06887420BD0824209D0B94207D089
:1085D0001B68002B3FF4E6AD5A6861688A42EFD110
:1085E000D9682A689142F3D96A7995F806C0EF797B
:1085F0009869043262443A44891A821AD9609A61AD
:10860000E6E7C2E90177C1E75160A1689160ABE795
:108610009B4B9C4A9C48122109F042F9984B9B4A7B
:1086200099489C2109F03CF9DBF80430013379D0FA
:10863000DBF80830013325AF0DF1380875D012ABE7
:108640003A4641465846FEF705FA0028FFF682AE44
:108650006BD0D4E9012312981A900C301E9014921A
:108660000C2013AA9DF84FC0159339461B90002784
:108670001D901C9201231AAA5846CDF87CC0CDF853
:1086800084C02097FFF72EFB00287FF463AE0E987E
:10869000DBF80430984260D00F9ADBF808108A4269
:1086A0005BD0884259D0934257D0012201338BF8D6
:1086B00040203FF448AFDBF8083001333FF443AFCC
:1086C0005846FEF749FF00283FF43DAF064669E5EE
:1086D000229DDDF86CA0CDF82C8025F000450BF133
:1086E0001403043D1E463FD004460DF1940907E0F3
:1086F0000134012249460BA800F05CFEA54233D0AC
:10870000DBF800301B6A9A4582D2CDE901970094CC
:108710005346002231465846FDF79AFE0028E7D01E
:1087200006463FE525AF0DF1380841463A46584622
:10873000FEF7BAF80028FFF60DAE3FF404AF394655
:10874000D4E9017000232F901A4658462E97FFF760
:10875000C9FA00283FF4F7AEB8E76368CBF80430F5
:10876000A268CBF80820A0E7DDE90A329A427FF43C
:1087700032AE059B93B9DBF81060002E3FF412ADCA
:1087800070681B9B984276D0B2681C998A4272D05E
:10879000884270D093426ED03668EEE7DBF8043042
:1087A00001334AD0DBF80830013325AF0CAC46D09A
:1087B0003A4621460EAB5846FEF74CF9061EFFF628
:1087C000F1AC3CD00E9B1293DDE91B420C339DF8BB
:1087D0003F0016930C231094119213931593179046
:1087E000199039460FAD0024012312AA584614955A
:1087F0001894FFF777FA064600287FF4D3AC0C985C
:10880000DBF80430984231D00D9ADBF808108A4228
:108810002CD088422AD0934228D0012201338BF8F1
:108820004020A8D0DBF808300133A4D05846FEF72A
:1088300093FE0646002E9ED0B4E425AF0CAC214634
:108840003A465846FEF730F8061EFFF6ABAC92D01B
:10885000DDE91B4000232F9039461A4658462E94D6
:10886000FFF740FA0646002E85D09BE4DDE91B3277
:10887000CBE90132D1E773601C9BB3608CE700BF8A
:10888000804D0300184F0300A04D0300284F030044
:108890002DE9F04F2DED028B8B6A0160C5B00446C7
:1088A000002B00F09780C361C86A002800F09E800A
:1088B000A0628A69FF2109F0B5F84FF0FF33226802
:1088C00023626361536AD90640F02783002B00F0CE
:1088D0001D83106B002800F09280E063D2E90551FF
:1088E000B1FBF5F305FB1313002B40F0FA82D769B7
:1088F000B7FBF1F501FB1575002D40F000834FF03B
:10890000FF36A7F10803B6FBF3F33344B3FA83F35E
:10891000C3F12003B7EB830FC0F0EA82526A2561EE
:108920002946C4E90265D20884F84050666009F01F
:1089300079F82368E562D3E90823934228BF1346F8
:10894000C4E90C35A26322A92046FEF7C1F805460A
:1089500078B123689A6A002A63D0DA6A002A5BD069
:108960001B6B002B54D0284645B0BDEC028BBDE8F4
:10897000F08F2DA92046FEF7ABF805460028E8D178
:10898000DDE92E21349B0E92CDE92E1201330490A5
:1089900034930D914FF001092068C368984705464C
:1089A000002843D015F1340FD3D10D9B2662012B43
:1089B0000DD90E9B012B0AD92EA92046FEF73EFBAE
:1089C00005460028C5D101232E990493E4E76FF0F2
:1089D0003305BEE7486905F0F1FDE061002800F0CD
:1089E000DF802168C86A00287FF462AF886905F0DB
:1089F000E5FDA062002800F0D380216859E7D8087F
:108A000005F0DCFDE063002800F0CA80226865E71D
:108A1000E06B05F0E7FDA6E7A06A05F0E3FD23683B
:108A20009EE7E06905F0DEFD236896E734AFA246D5
:108A30001022394609A8099600F0BCFC5AF8202BF0
:108A40002E9B126A934280F07D824FF01008CDE990
:108A500000572A46CDF8088051462046FDF7C0FD54
:108A6000054600289ED1359B23F00043043B102B84
:108A7000474633D904F1140B0DF1280822680E9BE8
:108A8000126A934280F06482CDE901890097002246
:108A900059462046FDF7DCFC054600287FF459AF17
:108AA0000122414609A800F085FC22682E9B126A2B
:108AB000934280F047822A46CDE9018900975146CA
:108AC0002046FDF78DFD054600287FF46BAF359BF2
:108AD00023F000430137043B9F42CFD322682E9BF3
:108AE000126A934280F02E82042209A9CDE9007116
:108AF0000292514600222046FDF772FD05460028ED
:108B00007FF450AF216A66614B1C11D02068A36AC4
:108B1000826900928568626AA847054600287FF44A
:108B200041AF2368A06A9A69FF2108F07BFF2662A3
:108B3000206803699847054600287FF433AF359BCA
:108B4000DDF8B8B00A9623F0004304F11402043BA8
:108B500008EE102A3CD01D46234608EE90AA38AFF6
:108B600092460446984607E00134012239460AA895
:108B700000F020FCA54228D0D8F800301B6A9B45A5
:108B800080F0E681CDE9017900945B4600225146F0
:108B90004046FDF75DFC0028E6D005464446D8E691
:108BA00023689A6A002A00F0C881DA6A002A00F075
:108BB000BF811B6B002B00F0B7816FF00B052846BF
:108BC00045B0BDEC028BBDE8F08F18EE90AA44468C
:108BD000DDE909329A427FF4E8AE049B002B40F0B5
:108BE000168225698DB168682E9B984200F0B68187
:108BF000AA682F998A4200F0B181884200F0AE81C4
:108C0000934200F0AB812D68ECE7A74A23688DF80A
:108C10006A50082641F22E47ADF868708DF86B60F7
:108C200092E80300D3E907261D9220AA82E80300F8
:108C30002F9A06954FF001102E9D1E963421102676
:108C4000A2601C922C9202221F9065601B952B95AE
:108C500019962A914FF0010904921846DDE9233153
:108C6000299A0C93CDE9231301320023079329920B
:108C7000C3680B9198470546D8B115F1340F7FF4BE
:108C800068AE0B9B4FF0FF32012B226232D90C9B56
:108C9000012B2FD923A92046FEF7D0F9054628BB82
:108CA0002068239901230793C36898470546002845
:108CB000E3D129AF4FF0FF331022394611A81193A9
:108CC00000F078FB2268239B126A934280F03A817D
:108CD0001026CDE900572A46029651462046FDF758
:108CE0007FFC18B310F1340FCBD0054615F1340FCB
:108CF0007FF42FAE049B012B14D1069B002B3FF475
:108D000066AE22A90026012738AA2046CDE9386799
:108D1000FDF72AFD054600287FF41BAE23681A6A7A
:108D2000A26317E601232068049397E72A9B23F0A8
:108D30000043043BB34259D918EE108A37460DF16F
:108D4000E00B05902FE022680C9B126A934280F0A2
:108D5000FF80CDE901B90097002241462046FDF78A
:108D600077FB05460028C1D10122594611A800F021
:108D700021FB2268239B126A934280F0E3802A46FB
:108D8000CDE901B9009651462046FDF729FC05467C
:108D900000287FF472AF013701362A9B23F000438D
:108DA000043B9E4222D2059B002BCCD1102FCAD16E
:108DB0001AAD2022294611A800F0FCFA2268239B54
:108DC000126A934280F0BE802021CDE900650291B5
:108DD000059A51462046FDF703FC054600287FF41E
:108DE0004CAF0123203630270593D6E72268239B1A
:108DF000126A934280F0A680042211A9CDE9006195
:108E00000292514600222046FDF7EAFB0546002863
:108E10007FF433AF216A4FF0FF339942636113D07F
:108E20002068A36A826900928568626AA84705463D
:108E300000287FF422AF2368A06A9A69FF2108F016
:108E4000F1FD4FF0FF332362206803699847054620
:108E500000287FF412AF2A9BDDF88C8023F0004BB2
:108E60004FF0FF32BBF1040B38921FD018EE105AAE
:108E700007460DAE07E001370122314638A800F061
:108E800099FABB4512D023681B6A984560D2CDE998
:108E9000016900974346002229462046FDF7D8FA8B
:108EA0000028E8D0054621E70C4F0300389A119BB3
:108EB0009A427FF4E6AE079B002B57D123696BB132
:108EC0005D68239A95424DD099682498814249D093
:108ED000854247D08A4245D01B68F0E701230693BC
:108EE00008E7914B914A924840F61F0108F0D8FCE0
:108EF000904B8E4A8E4840F6230108F0D1FC8E4BF1
:108F00008A4A8B484FF4026108F0CAFC8B4B874AAF
:108F1000874840F6140108F0C3FC894B834A844813
:108F200040F6130108F0BCFCE06B05F05BFB44E687
:108F3000A06A05F057FB23683BE6E06905F052FBA9
:108F4000236832E67F4B804A79489C2108F0A8FCD0
:108F50007C4B7E4A7648122108F0A2FC6B602F9B66
:108F6000AB6050E65A60249A9A60B5E763680133B3
:108F700000F09F80A368013338AE0BAF00F09B80F8
:108F8000324639460DAB2046FDF764FD051EFFF65F
:108F9000ADAE00F09080DDE923030D9D11950C35F9
:108FA00015950F900C259DF83B00109331461295B6
:108FB000149516900025189011AA0EAE0123204694
:108FC00017951396FEF78EFE054600287FF48EAEA9
:108FD0000B986368984267D00C9AA1688A4263D064
:108FE000884261D093425FD04FF00102013384F890
:108FF00040203FF463AFA36801333FF45FAF2046E6
:10900000FEF7AAFA0546002D3FF458AF6EE66368F6
:1090100001336ED0A368013338AE0DAF6BD032464A
:10902000394611AB2046FDF715FD051EFFF691AC44
:1090300061D0DDE92E02119B19930C331D9313901F
:109040000C2312A89DF84B50149231461A931C938E
:109050001B900026012319AA20461E9520951F96D5
:10906000FEF740FE054600287FF473AC0D98636858
:10907000984239D00E9AA1688A4235D0884233D0BE
:10908000934231D00122013384F840203FF4A9AD4E
:10909000A36801333FF4A5AD2046FEF75DFA05460F
:1090A000002D3FF49EAD54E4DDE92332C4E90132E2
:1090B0009AE738AE0BAF394632462046FDF7F4FB4F
:1090C000051EFFF613AE3FF4F9AEDDE92350002391
:1090D000429031461A4620464195FEF703FE05466A
:1090E000002D3FF4EBAE01E6DDE92E32C4E901329A
:1090F000C8E738AE0DAF394632462046FDF7D4FBFF
:10910000051EFFF626AC3FF46CADDDE92E500023C2
:10911000429031461A4620464195FEF7E3FD05464A
:10912000002D3FF45EAD14E4604E0300384F0300A1
:10913000A04D0300C04E0300904E0300484E0300B4
:10914000284E0300804D0300284F0300184F0300F2
:10915000F0B58B6A01609BB00446002B7CD0C361E4
:10916000C86A002800F08380A0628A69FF2108F0A5
:1091700059FC4FF0FF33216823626361486AC306DC
:1091800040F0C380002800F0D5800B6B002B75D019
:10919000E363D1E90503B3FBF0F200FB1232002ACE
:1091A00040F0C180C869B0FBF3F203FB1202002A51
:1091B00040F0B2804FF0FF35A0F10803B5FBF3F3A8
:1091C0002B44B3FA83F3C3F12003B0EB830FC0F059
:1091D00085800B6AA363C4E90155C4E90322C4E98D
:1091E0000B2284F8402062630026012704AA0FA9FD
:1091F0002046CDE90467FDF7B7FA054660B123685C
:109200009A6A002A46D0DA6A002A3ED01B6B002BED
:1092100045D028461BB0F0BD2146109B51F8142BB9
:10922000126A934280F08D802020029007AE1020B9
:10923000CDE900062A462046FDF70AF90546002832
:10924000DDD1DDE90810424B0D9A9A42C4E90110C4
:1092500029D06FF03305D2E7486905F0AFF9E06136
:10926000002831D02168C86A00287FF47DAF886962
:1092700005F0A4F9A06238B3216876E7C00805F0CC
:109280009DF9E06300B3216883E7A06A05F0AAF9BD
:109290002368BBE7E06905F0A5F92368B3E7E06B55
:1092A00005F0A0F9B5E70E9AA3F18773A3F58063E3
:1092B0009A42CED10C9B1A0C012A02D19BB2012BEF
:1092C000A7D96FF015059AE723689A6AC2B1DA6ADE
:1092D0008AB11B6B4BB16FF00B059AE71D4B1E4A11
:1092E0001E4840F6230108F0DBFAE06B05F07AF93E
:1092F0006FF00B058DE7A06A05F074F92368E8E7C5
:10930000E06905F06FF92368E1E7154B124A13484D
:1093100040F6130108F0C4FA124B0F4A0F484FF4FD
:10932000026108F0BDFA104B0B4A0C4840F61F01D1
:1093300008F0B6FA0D4B084A084840F6140108F048
:10934000AFFA0B4B0B4A0548122108F0A9FA00BFEF
:109350006C697474C04E0300384F0300A04D0300C5
:10936000284E0300904E0300604E0300484E030059
:10937000804D0300184F030003689A6A10B5044635
:109380002AB1DA6A52B11B6B7BB1002010BDC069F3
:1093900005F028F92368DA6A002AF4D1A06A05F0FA
:1093A00021F923681B6B002BEFD1E06B05F01AF954
:1093B000002010BDE2B170B4561E0E4D02680E447E
:1093C0004C1E14F8013F83EA020101F00F01A6428E
:1093D00055F8211081EA121282EA131303F00F03E9
:1093E00055F8233083EA1212EBD170BC026070474B
:1093F000704700BF444F030010B5034B03600446A1
:10940000FCF7B0FF204610BD8C4F030010B5054B94
:1094100003600446FCF7A6FF204608F015F8204636
:1094200010BD00BF8C4F030008B500F0ABF9002061
:1094300008BD00BF70B501F5ED51CC0182B004F15B
:109440008006FF25012220460DF1070114448DF806
:10945000075000F09DF9A642F4D1002002B070BD83
:1094600008B501F5ED5102EBC110029A194600F062
:109470008FF9B0FA80F04009404208BD08B501F507
:10948000ED5102EBC1111846029A00F099F900283B
:10949000CCBF00200120404208BD00BF38B50021EC
:1094A0000546FCF77FFF98B94FF46D24204604F57C
:1094B000805400F091F958B1B4F5742FF6D12846D4
:1094C000FCF792FF28460021BDE83840FCF76ABF50
:1094D00038BD00BF10B5074C07492046FCF74AFFCE
:1094E000064B23602046064A0649BDE8104008F0B6
:1094F000D1B900BF74630020046000208C4F0300CA
:1095000000600020F993020010B504460069431C76
:1095100018D0E36823B161694FF48052984770B95D
:109520000D2007F043FE236820699847D4E9040121
:1095300063684FF4805298470D2007F04DFE4FF0BE
:10954000FF33236110BD00BF2DE9F04F83B00193BD
:1095500043B3DFF8709005460E4690461F46C6F3AB
:109560000B0ACAF580542B69BC4206EA090B28BFD6
:109570003C465B4528464146224617D0FFF7C4FFCC
:10958000AB686869C5F810B059464FF480529847E7
:10959000686941462246504408F01CFA3F1B2644A5
:1095A000A044DCD1019803B0BDE8F08F6869504455
:1095B00008F010FA3F1BA0442644D0D1019803B014
:1095C000BDE8F08F00F0FFFF2DE9F84307691D4665
:1095D0007B1C06468846144605D097420BD807F5F3
:1095E00080539A4230D3B368214640462A46984772
:1095F0002846BDE8F88353199F42F4D207F58053FB
:109600009A42F0D2A7EB04094A462146B368404685
:10961000E71B98477A1908EB09004FF4805C00219A
:10962000624528BF62467369174619444F4408F0E3
:10963000D1F9BD42DCD9B368E11908EB0700EA1B98
:1096400098472846BDE8F883A7EB040C0CF5805C2E
:10965000E11B2A4640464FF00009E1E729DF704749
:1096600028DF704712DF704708B508F0A5F9B0FA97
:1096700080F0400908BD00BF10B5144608F0AAF9F3
:10968000204610BDF0B583B0074600230DF107005A
:1096900016460C46D5088DF80730FFF7E3FF01E0CA
:1096A00004F040FF2A4621463846FFF7D7FF11282D
:1096B00003464FF00100F3D0D3B99DF80730D3B97A
:1096C00007EB560704EB560401E004F02BFF2A4693
:1096D00021463846FFF7C2FF112803464FF001002C
:1096E000F3D02BB99DF8073063B9304603B0F0BD15
:1096F000002003B0F0BD084B4FF0FF31186805F0B3
:10970000E3FBDDE7044B4FF0FF31186805F0DCFBAD
:10971000304603B0F0BD00BF1874002030B5184DBE
:10972000296883B00446D9B1240B01E004F0FAFEA5
:109730002046FFF795FF112803464FF00100F5D0B2
:1097400013B1002003B030BD0DF107008DF80730D4
:10975000FFF788FF9DF807304BB9012003B030BDFB
:109760000A2004F0BFFF28600028DDD1E9E728685F
:109770004FF0FF3105F0A8FB012003B030BD00BF62
:10978000187400200148FFF7BFBE00BF3C600020F6
:1097900010B4094CA0420AD3B0F5742F07D2134677
:1097A0005DF8044B0A4601460448FFF7CDBE4FF072
:1097B000FF305DF8044B7047006002003C60002001
:1097C00010B40C4613460146224602485DF8044B8D
:1097D000FFF7FABE3C60002030B5184D296883B011
:1097E0000446D9B1240B01E004F09CFE2046FFF7AB
:1097F00037FF112803464FF00100F5D013B10020C8
:1098000003B030BD0DF107008DF80730FFF72AFFD8
:109810009DF807304BB9012003B030BD0A2004F099
:1098200061FF28600028DDD1E9E728684FF0FF31AB
:1098300005F04AFB012003B030BD00BF18740020C2
:10984000F8B5037813F001041AD103785A070546D6
:10985000C3F3800701D52046F8BD0E4630464FF0D1
:10986000FF3105F031FB2B7813F001040BD12B787D
:109870005B0709D42B7843F004032B70012403E029
:1098800000242046F8BD3C46002330461A461946BF
:1098900004F05AFF2046F8BD70B504460D46084650
:1098A0004FF0FF3105F010FB2378C3F380065B0710
:1098B00008D5237813F0010205BF237862F38203F1
:1098C00000262370002328461A46194604F03CFF60
:1098D000304670BDC378828803F003000228C2F3CB
:1098E0000A0205D0032819D0012807D000207047AC
:1098F00002291CD0402A09D801207047022940F2D1
:10990000FF3308BF4FF480639342F6D20A4B1868C6
:1099100010F00100F1D000BE0020704702290CBFFA
:109920004FF4806340239342F0D30120E5E7B2F582
:10993000007FE1D0EAE700BFF0ED00E00A44914289
:1099400016D230B44C78052C05D00C7821448A42CC
:10995000F8D830BC70478C7804F07F0500EB4505E3
:10996000E4092B550C7821448A42EBD830BC70476F
:10997000704700BF0146014800F0EEBA3C74002079
:1099800038B500F097F940B100240546204601346F
:1099900000F0EEFDE0B28542F9D838BD70B592B066
:1099A0001D460C46164601A84222002108F03AF84E
:1099B000412D5CD9631C0222DBB28DF806408DF884
:1099C0000E408DF8264040F6083540F202248DF80E
:1099D0001E308DF827308DF83130ADF804508DF8F9
:1099E00007208DF812208DF833208DF83B20ADF83C
:1099F0000840204A069240F2012505232424ADF8B0
:109A000010508DF815308DF8164004231A4C8DF83F
:109A10001F30012540F224628DF81C508DF8303043
:109A20000894ADF82420154D0A9508234FF41164CD
:109A30000A228DF82C30ADF82E4040238DF83420CA
:109A40000F4C8DF83C3001A9304640F2075540F2EA
:109A500009464222ADF80C60ADF838508DF843301D
:109A6000CDF83F4007F0B6FF422012B070BD002095
:109A700012B070BD200105242402020507058003F1
:109A800007058002007EFF280AD010B500F018FDFF
:109A9000044608B1204610BD07F0EEFC204610BD7C
:109AA00000207047007EFF280ED000B583B00DF176
:109AB000070100F053FD20B19DF8070003B05DF8E9
:109AC00004FB4FF0FF30F9E74FF0FF30704700BF65
:109AD000007EFF280FD000B583B001220DF10701F1
:109AE00000F0FAFC20B19DF8070003B05DF804FB1C
:109AF0004FF0FF30F9E74FF0FF307047007EFF284E
:109B000001D000F035BD7047007EFF2801D000F085
:109B100097BD0020704700BFF8B50646007EFF28BD
:109B20001CD017465AB10D46144600F0A5FC294634
:109B3000224680B1307E00F05FFD241A01D1384604
:109B4000F8BD054407F098FC307E00F095FC2946EE
:109B500022460028EED13F1B3846F1E70020F8BD31
:109B600070B50368184A5B6882B093428DF807109D
:109B700021D10546007EFF2823D000F07DFC0DF1A9
:109B8000070601243146224688B1287E00F034FDC4
:109B9000241A02D1012002B070BD064407F06CFC0B
:109BA000287E00F069FC314622460028EDD1C4F140
:109BB000010002B070BD01220DF10701984702B00B
:109BC00070BD002002B070BD199B020070B592B04C
:109BD0001D460C46164601A84222002107F022FF2E
:109BE000412D5CD9631C0222DBB28DF806408DF852
:109BF0000E408DF8264040F6083540F202248DF8DC
:109C00001E308DF827308DF83130ADF804508DF8C6
:109C100007208DF812208DF833208DF83B20ADF809
:109C20000840204A069240F2012505232424ADF87D
:109C300010508DF815308DF8164004231A4C8DF80D
:109C40001F30012540F224628DF81C508DF8303011
:109C50000894ADF82420154D0A9508234FF411649B
:109C60000A228DF82C30ADF82E4040238DF8342098
:109C70000F4C8DF83C3001A9304640F2075540F2B8
:109C800009464222ADF80C60ADF838508DF84330EB
:109C9000CDF83F4007F09EFE422012B070BD00207C
:109CA00012B070BD200105242402020507058003BF
:109CB00007058002014B1878704700BF38740020F8
:109CC000037EFF2B02D1074B1A7802B17047064979
:109CD00002764161012200F1100104481A7000F07F
:109CE000DBB800BF38740020944F03003C740020A0
:109CF000007EFF280ED000B583B000F0BDFB10B190
:109D000003B05DF804FB019007F0B6FB019803B0C7
:109D10005DF804FB0020704701B900B1704700B541
:109D200083B0694600F0BEFB009BB3F5966F02D08E
:109D300003B05DF804FB00F04DFBF9E730B4084BCD
:109D4000084AFF2002F108054FF47A7400213032EE
:109D500018761D609C601A6130BC5960596170476B
:109D60001C740020A44F03000378002B00F09280A5
:109D7000F0B50546002004462E4603E001342B5D75
:109D80002E19C3B103F14002D2B2012AF6D9F42B45
:109D9000F4D81A0610D40122A3F55846B6F5006F80
:109DA000ECD31444202806D021F810302B5D01306C
:109DB0002E19002BE6D1F0BD03F0E002C02A52D0EC
:109DC00003F0F002E02A61D003F0F802F02AD5D1C6
:109DD00003F007030427727802F0C00CBCF1800F77
:109DE000CCD196F802C00CF0C00E02F03F02BEF1DA
:109DF000800F42EA8313C1D10CF03F0C032F4CEAD1
:109E000083132AD0F27802F0C006802EB6D102F079
:109E10003F0242EA8313A3F58032B2F5801F38BFB8
:109E20000427ABD2A3F55842B2F5006FA6D3B3F521
:109E3000803F3C44B6D31E28BDDCA3F580334200EE
:109E40009E0A0A44C3F30903A6F52056A3F510534E
:109E500021F810605380023091E7A3F50062B2F55B
:109E6000784FDFD38AE7727802F0C006802E03F0C5
:109E70001F0383D102F03F0242EA8313A3F1800261
:109E8000B2F5F06FBFF47AAF022285E703F00F035B
:109E90000327A0E718467047F8B50546B0F8180143
:109EA0006C69B5F81A310A680E4604441B1A176823
:109EB00095F81C119BB222463046B84750B3221881
:109EC00094423CD2766806E0052B25D023780BB36C
:109ED0001C44A24233D96378042BF5D1E378002BDC
:109EE000F4D195F81C11013185F81C11002EEDD02C
:109EF00095F850110B29E9D801F1480745F827607A
:109F0000217295F85011013185F850111E462378C1
:109F1000002BDDD10020F8BD94F90230002B08DBC6
:109F200095F81E31591C85F81E11A1780B43A370BA
:109F3000CCE795F81D31591C85F81D11F5E7B5F8EA
:109F400018216B69104480B2A5F81801588095F863
:109F50001C211A710120F8BD2DE9F043264DDFF8D0
:109F6000A890AC4604468846BCE80F0089B003AF11
:109F70000FC703AE0FCE05F1140E25460FC59EE8A0
:109F80000700DCF800303B806B4636682E8003C348
:109F90006B4603CB012504F118034FF4807663610F
:109FA000A061E16184F8202004F59870C4F818914C
:109FB0002022A4F81C61002184F81E5107F032FD14
:109FC0000E4E0F48A571042240F2EF2340F20947DC
:109FD0000021C4E94A0184F85021A3804FF4E13103
:109FE000C4E948760748FFF76BFE404600F0E0F909
:109FF000284609B0BDE8F08300500300D84F0300A5
:10A00000E04F03001C740020090000012DE9F04717
:10A01000D0F82C0188B00E4630B10231FFF7A4FE13
:10A02000C0B208B0BDE8F087684600F0D5F98646B2
:10A03000F8B1431E06F10409DBB2114DE84609EB05
:10A04000830904AC95E80F0018F8017B84E80F0041
:10A0500007F00F0C0DF1200AD4440AEB17171CF877
:10A0600010CC17F8103CA6F804C073800436B14534
:10A07000E8D14FEA4E00C0B208B0BDE8F08700BF9B
:10A08000EC4F0300004870473C740020014B5869B6
:10A09000704700BF3C74002010B5B0B103281CD03D
:10A0A000154C94F85031834223D9483004F5AA71F5
:10A0B00054F82000FFF758FEC3B201335B0043F4AD
:10A0C00040730E48A4F8523110BD0B4CD4F8203127
:10A0D000A4F854314FF44173F3E70849A1F5A9748A
:10A0E0002046FFF793FF431C5B0043F440739BB291
:10A0F000E7E7002010BD00BF3C7400208E750020F3
:10A10000024B53F8200000B100697047D075002061
:10A1100030B4094CBDF8085054F8204044B164698B
:10A1200034B10846A44611461A462B4630BC604757
:10A13000002030BC704700BFD075002030B4084C00
:10A14000BDF8085054F8204044B1A46934B1084621
:10A15000A44611461A462B4630BC604730BC7047B7
:10A16000D0750020024B186808B190F86000704765
:10A17000D87500202DE9F843234C2568002D40D0E8
:10A180001E462C2303FB00530446D3F82090884638
:10A190001746B9F1000F30D0484608F0D9FA082820
:10A1A000024628BF08222C2000FB0454D4E909549D
:10A1B000DFF85CC0154B002D08BF65464946404698
:10A1C000002C08BF1C4607F005FC284608F0C0FA22
:10A1D00010280246294628BF1022384607F0FAFB0D
:10A1E000204608F0B5FA042802462146304628BF2A
:10A1F0000422BDE8F84307F0EDBBDFF81890082211
:10A20000D1E7BDE8F88300BFD87500203C500300BB
:10A210002C5003002050030070B5104E3368CBB1B2
:10A220002C2404FB0034054662691AB19047336858
:10A2300084F832002C2202FB053393F832400CB133
:10A24000204670BD284623463A22022101F012F82A
:10A25000204670BD1C46204670BD00BFD87500204A
:10A26000074B1B6853B110B42C2404FB0030C46AA4
:10A27000038E0C605DF8044B13807047704700BF7D
:10A28000D875002008B520220023052100F0F2FF38
:10A290004FF0FF3008BD00BF30B4084C256855B101
:10A2A0000446084611461A462C2303FB0454E3696E
:10A2B0000BB130BC1847012030BC7047D875002066
:10A2C00030B4094C029A25684DB104460846194637
:10A2D0002C2303FB0454A3680BB130BC18474FF088
:10A2E000FF3030BC704700BFD875002030B4094C37
:10A2F000029A25684DB10446084619462C2303FBF3
:10A300000454E3680BB130BC18474FF0FF3030BC49
:10A31000704700BFD8750020044B1B682BB12C225E
:10A3200002FB0030036903B118477047D87500205D
:10A33000054B1B682BB12C2202FB0030836903B153
:10A3400018470120704700BFD875002003F070BE89
:10A3500000B5134B402283B083F82723002001F07F
:10A36000D9FF4FF080430024D3F838548DF80040D3
:10A37000684606F0CBFA0B4B019301A806F0F2FAFF
:10A3800006F0FCFAEB0707D400214FF0FF3002F093
:10A390004DF8FFF7F5FAF7E7204603F049FEF3E73B
:10A3A00000E100E04DA30200002003F0B3BA00BFBB
:10A3B00000B5002383B00322CDE9002303490448FC
:10A3C000C82205F0A7F803B05DF804FB4050030075
:10A3D00051A3020006F062BE4FF08052536E1BBACA
:10A3E0000360136E1BBA4360082070470048704733
:10A3F0004850030070B51E4D2B6883B1012913D15D
:10A400001478C4F34114012C0BD0022C07D15478DA
:10A41000012C0BD0022C07D19388072B20D00020D1
:10A4200070BD517822290BD0012070BDDC69002C51
:10A43000F5D0237811462246BDE8704002F004BEF4
:10A440005188003918BF01211976114602F0E2FD4A
:10A450002A68136A002BE7D0107E9847204670BD0B
:10A46000044C114623892246BDE8704002F0ECBD41
:10A47000DC7500205460002010B5044601F032FF66
:10A4800008B9002010BD01F035FF0028F9D10448BB
:10A490004FF4567303FB0400007900F0010010BD77
:10A4A000E0750020054B4FF4567202FB00339868AC
:10A4B00008609A899B7B8B718A807047E0750020C9
:10A4C00008B5044B4FF4567202FB0030103001F017
:10A4D000FDFC08BDE07500202DE9F0414FF45675F4
:10A4E00005FB00F51C4F4FF6FF734FF6FE7005F1AC
:10A4F0001004824288BF1A463C4492B2204601F0C2
:10A5000011FD0646204601F0FBFC3F2802D83046EC
:10A51000BDE8F08107EB0508002098F8031002F071
:10A52000EBFC0028F3D0204601F0EAFC3F280BD9D1
:10A5300005F5367298F803103A444023002002F0E3
:10A54000FBFC3046BDE8F08198F80310002002F0D3
:10A55000E3FC3046BDE8F081E0750020034B4FF48A
:10A56000567202FB0030103001F04ABDE075002049
:10A570002DE9F041044601F0B5FE10B90020BDE818
:10A58000F08101F0B7FE06460028F7D14FF456716E
:10A59000DFF8608001FB04F404F1240545442846FB
:10A5A00001F094FC0028E9D008EB04073046B978A4
:10A5B00002F0A2FC0028E1D004F546744444284689
:10A5C0002146402201F0AEFC054660B1B978224632
:10A5D00030462B4602F0B0FC40B9054B1B68DB0748
:10A5E000CCD500BECBE7B97802F096FC2846C6E78A
:10A5F000F0ED00E0E075002038B5104B4FF45674D4
:10A6000004FB003405464FF6FF734FF6FE7082429E
:10A6100088BF1A46243492B2204601F02BFD03462F
:10A6200020461C4601F052FC3F2801D8204638BD88
:10A630002846FFF79DFF204638BD00BFE07500208B
:10A6400008B5044B4FF4567202FB0030243001F081
:10A6500057FC08BDE0750020F0B51B4C83B000210D
:10A660004FF4567220460D46012607F0DBF9FF2312
:10A670004FF4E13204F138016371A26033460827D8
:10A68000009504F110004FF48072A773A58101F0CA
:10A69000E5FB33464FF4807204F59C7104F124000D
:10A6A000009601F0DBFB04F50E71304604F0FCF976
:10A6B00004F5227103463046C4E9075304F0F4F967
:10A6C000C4E90C0503B0F0BDE075002010B5094BDE
:10A6D000002203F1240403F110001A601A7101F042
:10A6E0006BFD204601F068FD20460121BDE81040C9
:10A6F00001F082BDE07500202DE9F0414B79022B7D
:10A7000082B002D18B79022B04D00025284602B0FA
:10A71000BDE8F081314FBB782BB1314B1B68DB07B3
:10A72000F3D500BEF1E78B783B700C780C440646FD
:10A73000617824294FF009050BD1082A02D80FE0CF
:10A74000AA420DD323781C442B44617824299DB25E
:10A75000F6D005291BD0042902D163790A2B28D011
:10A76000204801F0CDFB3F28D0D9F978002002F035
:10A77000C3FB0028CAD01B4801F0C2FB3F28F97870
:10A7800013D9194A4023002002F0D6FBBEE7214628
:10A79000304602F08DFB0028BFD0A3787B70237871
:10A7A0001C442B4461789DB2D5E7002002F0B4FB35
:10A7B000ACE70E4A94F80080019202230132009225
:10A7C000304604EB08011A4602F0FAFA0028A4D039
:10A7D00005F10E0318FA83F39DB2C1E7E07500207E
:10A7E000F0ED00E0F0750020B8780020E275002060
:10A7F00038B5137803F06003202B0CD1274C9388D5
:10A8000025789D4207D15378203B032B03D8DFE8FE
:10A8100003F00A172004002038BD012930D0032995
:10A8200033D0012038BD01290CD00329F9D11C4BAC
:10A83000002BF6D01B490020AFF30080012038BD6B
:10A840000129EED111460723164A02F0FDFB012033
:10A8500038BD012914D00329E3D15588257105F0AD
:10A860000104114884F0010101F0C6FC0F4B002BDC
:10A87000D7D0C5F3400221460020FFF74DFAD0E7BC
:10A88000114602F0C7FB012038BD094B002BC8D090
:10A8900051880020AFF30080012038BDE075002012
:10A8A00000000000E875002004760020199D0200D9
:10A8B000000000002DE9F047574DEA788A420C4627
:10A8C00007461E465CD19AB205F5367105F11000B7
:10A8D00001F0D0FB514BD3B16B79FF2B17D0B6B140
:10A8E00005F2D72808EB060AA8F2C72902E0D045EE
:10A8F0000DD06B7918F8012F9A42F8D1484601F033
:10A90000F5FA0028F3D16979AFF30080EFE7444B03
:10A9100023B1444801F0EAFA002870D0414801F020
:10A92000EFFA3F2805D9E978002002F0E5FA00287F
:10A9300058D1AB789C4203D001242046BDE8F08773
:10A94000394B13B10020AFF3008001F0CBFC20BBEA
:10A95000364801F0BBFA0028EED1002EECD016F0FC
:10A960003F06E9D1A978384602F0C6FA0446002825
:10A97000E2D0A97838463346324602F0DDFADCE709
:10A98000AB788B42DCD02A4B1C6814F00104D4D085
:10A9900000BE00242046BDE8F08701F0ABFC044671
:10A9A0000028D5D1214801F091FA0028D0D0A9780B
:10A9B000204602F0A1FA0028CAD01E494022A1F583
:10A9C0003D7001F0AFFA034608B31A4AA978204651
:10A9D00002F0B2FA0028AFD1154B1B68DB07B7D5E0
:10A9E00000BEB5E70F4801F08BFA3F280AD9402393
:10A9F000114AE978002002F09FFAAB789AE7AFF3AA
:10AA000000808BE7E978002002F086FA91E7A978C8
:10AA100002F082FA9CE700BFE07500200000000011
:10AA200000000000F0750020000000000476002007
:10AA3000F0ED00E0F8780020B878002002484FF4EC
:10AA40008C72002106F0EEBF3879002002484FF4E6
:10AA50008C72002106F0E6BF387900202DE9F0471E
:10AA60004B79032B82B014D10B79C3EBC30512359C
:10AA7000ADB295420C4607D8314F7A7806466AB196
:10AA800097F88D20002A51D02E4B1B68DA0700D58D
:10AA900000BE0025284602B0BDE8F08790469246E9
:10AAA0004FF0010E4FF0020C2278A11848782128AF
:10AAB000EAD14FF08C0909FB0A7907EB0E00C9F8BF
:10AAC000881014F802E0019007EB0C020092714428
:10AAD0001A463046032302F073F90028D4D0A37934
:10AAE000012B04BFE37989F803308C2303FB0AFAB6
:10AAF00007EB0A0301221A71A27807F80A20D3F89B
:10AB000088209978B2F80720DA800029C2D008F1AD
:10AB100048023A443046402302F00EFA0028B9D1E8
:10AB2000084B1B68DB07B5D500BEB3E74FF08D0EB1
:10AB30004FF08E0C4FF08C084FF0010AB4E700BFC5
:10AB400038790020F0ED00E0137803F01F0CBCF121
:10AB5000010F14D12DE9F0430C468649978815461C
:10AB60000A78FFB2BA4283B006460AD091F88C2028
:10AB7000BA4200F0CF80002003B0BDE8F08300208F
:10AB800070470027BC46042208204FF0480E4FF0C3
:10AB9000050813F0600306D1012C00F0A18001200C
:10ABA00003B0BDE8F083202BE5D16B78013B0A2B85
:10ABB000E1D80FF2080959F823F000BF93AC020066
:10ABC00089AC020075AC020077AB020077AB0200E3
:10ABD00077AB020077AB020077AB020035AC020026
:10ABE0000BAC0200E9AB0200012C1DD0032CD6D126
:10ABF0006B88614A8C2000FB0717D9B23971002A93
:10AC0000CDD06046AFF30080C9E7012CC7D16B8877
:10AC10005A488C2202FB0712190A517120B1604672
:10AC2000AFF300800028A6D02946304602F0F2F9A2
:10AC30000120A1E7012C00F08580032CAFD16888AA
:10AC4000ED88402D01EB0E032C4628BF402410F068
:10AC5000FF014FEA102207D0012D05D9187888424C
:10AC600002D1013CA4B2013360460094FFF766FABA
:10AC7000012081E7012C92D10A442946304623461F
:10AC800002F0E2F9204677E7012C88D101EB0802B7
:10AC9000F3E7012C83D1B5F806E06B880F187046F6
:10ACA000402828BF402013F0FF014FEA13223B4603
:10ACB0005BD0BEF1010F5AD9013803F8011B80B2F5
:10ACC00000906046FFF724FA23189BB2002B45D171
:10ACD0002B4A1268D2077FF54EAF00BE18464BE7ED
:10ACE0006B78062B7FF447AF6B881B0A212B19D09A
:10ACF000222B7FF440AF6046FFF702FA1D498C23F8
:10AD000003FB07170246FB882946304602F09CF9F0
:10AD1000204631E7902294204FF0D40E4FF0910856
:10AD2000674636E78C2303FB0713D3F88820002AF5
:10AD30003FF421AF13782946304603B0BDE8F04315
:10AD400002F082B9EB88402B3FF615AF01EB0E0203
:10AD50003046294602F078F920460DE73A46294662
:10AD6000304602F071F9012006E70C46A8E70024FE
:10AD7000A6E700BF387900200000000000000000B6
:10AD8000F0ED00E070B5234CA2788A4282B0627880
:10AD9000054612D08A4226D094F88E208A4294F832
:10ADA0008D2030D08A4231D01B4B1B68DA0702D489
:10ADB000002002B070BD00BEFAE70020914213D01F
:10ADC00000229BB204F14806114600933346FFF778
:10ADD000B5F9A17832462846402302F0ADF860B1BB
:10ADE000012002B070BD00200C4A002AF8D09AB2AF
:10ADF00004F10801AFF30080F2E7074B1B68DB07A3
:10AE0000D6D500BED5E78C340120D7E78C3401209D
:10AE1000EAE700BF38790020F0ED00E00000000014
:10AE200070B500F124050446284601F04FF808B932
:10AE3000002070BD6178002002F05EF80028F7D095
:10AE400004F5067628463146402201F06BF80546A7
:10AE500060B1034661783246002002F06DF840B9D7
:10AE6000054B1B68DB07E3D500BE70BD617802F0BF
:10AE700053F8284670BD00BFF0ED00E030B5164C29
:10AE800083B000210D464FF41672204606F0CAFD2D
:10AE900004F1380104F1100000950123802200F034
:10AEA000DDFF802204F1B8010123009504F12400A4
:10AEB00000F0D4FF04F59C71012003F0F5FD04F5CA
:10AEC000C47103460120C4E9075303F0EDFDC4E952
:10AED0000C0503B030BD00BFB08B002010B5084C8E
:10AEE000002304F11000C4E90033C4E9023301F087
:10AEF00063F904F12400BDE8104001F05DB900BF22
:10AF0000B08B00202DE9F0434B79012B83B002D1A7
:10AF10008B79012B04D00025284603B0BDE8F083CF
:10AF2000CB79002BF7D10B78CC1806466578242D09
:10AF300099B20BD1914202D9EDE78A42EBD3237843
:10AF40001C440B446578242D99B2F6D0042DE2D12F
:10AF50006379012BDFD1A379032BDCD1E579002DB7
:10AF6000D9D1DFF8CC8098F8010098F8023050EA87
:10AF7000030905D02B4B1B68DB07CCD500BECBE704
:10AF8000A37888F8003027782079CB199DB2274420
:10AF900030B922E03B7881451D44ADB21F441CD23C
:10AFA000AA421AD37B78052BF4D139463046019258
:10AFB00001F07EFF019A68B3BB782079D90914BFEC
:10AFC00088F8013088F80230397809F101030D441E
:10AFD0005FFA83F9ADB20F44DCE7134800F090FF4D
:10AFE0003F2899D998F80210002001F085FF002829
:10AFF00092D00D4800F084FF3F2898F8021005D940
:10B000000A4A4023002001F097FF85E7002001F065
:10B0100083FF81E7034B1B68DA077FF57CAF00BE37
:10B02000054679E7F0ED00E0C08B0020888D002018
:10B03000B08B002000207047F8B52D4DAA788A42C9
:10B040001E4619D19AB205F5EC7105F1100001F018
:10B0500011F8284B13B10020AFF30080264800F010
:10B060004FFF3F2805D9A978002001F045FF04468D
:10B0700068BB01242046F8BD6B788B4208D01F4B7B
:10B080001C6814F00104F5D000BE00242046F8BD71
:10B0900007462846FFF7C4FE0028EAD105F1240040
:10B0A00000F014FF0028E4D1002EE2D016F03F0695
:10B0B000DFD16978384601F01FFF04460028D8D058
:10B0C000697838463346324601F036FFD2E70A48FF
:10B0D00000F016FF3F28A97805D9094A402300202F
:10B0E00001F02AFFC6E7002001F016FFC2E700BF0B
:10B0F000B08B002000000000C08B0020F0ED00E0CD
:10B10000888D002070B5324CE28AA36852BA92B2A0
:10B1100086B0054612B1B3FBF2F292B2A06BD4F83E
:10B120001110B0FBF2F61B1AB3F5007F28BF4FF4E5
:10B13000007309BA009302FB16023144254B607B71
:10B14000FFF7BEF8011E1EDB0AD08BB2214A94F82D
:10B150002E10284601F0F0FE002833D006B070BD56
:10B1600094F82E300391072203A8CDE904118DF83D
:10B170000C508DF80D208DF810308DF8111001F065
:10B180005FFD06B070BDA268A36B43F602200021EC
:10B19000D31AA08784F83E1001200221A36284F80C
:10B1A0002C0084F83010002AD8D0002BD6D0237B76
:10B1B000DB0914BF94F82E1094F82F10284601F0E4
:10B1C000FBFECBE7044B1B68DB07C7D500BEC5E71A
:10B1D000507C0020507A0020F0ED00E038B5214B83
:10B1E000214C05461BB1607BFFF7A2F8B0B1A06B04
:10B1F000A36894F82F101D4A1B1AB3F5007F28BFCF
:10B200004FF4007328469BB201F096FE00B138BDA2
:10B21000174B1B68DB07FAD500BE38BDA26BA168CF
:10B2200084F83E008B1A42F207720120A2870222A4
:10B23000A36284F82C0084F830200029E7D0002B8A
:10B24000E5D0237BDB0906D094F82E102846BDE814
:10B25000384001F0B1BE94F82F102846BDE83840C0
:10B2600001F0AABE31A30200507C0020507A0020D9
:10B27000F0ED00E0044880F83C1080F83D2080F8B4
:10B280003E300120704700BF507C00200248402221
:10B29000002106F0C7BB00BF507C002002484022BE
:10B2A000002106F0BFBB00BF507C00204B79082B6B
:10B2B00001D0002070478B79062BFAD1CB79502B27
:10B2C000F7D1162A06D81C4B1B68D907F1D500BE4A
:10B2D0000020704770B5194D8B7885F82D300B78AC
:10B2E00082B005F12F0205F12E0619440223CDE9A3
:10B2F00000261A46044601F063FD30B90E4A126872
:10B30000D2070FD500BE02B070BD204695F82F10B1
:10B3100000241F232A4685F8304001F00DFE20B19D
:10B320001720F0E7002002B070BD034B1B68DB075D
:10B33000F6D500BE1720E6E7F0ED00E0507C0020D7
:10B34000012901D00120704770B5137803F07F0404
:10B35000022C84B0054611D003F06003202B0AD1E3
:10B360005378FE2B28D0FF2B05D153881BB9D688E4
:10B37000B3B2002B3CD0002004B070BD5478012C37
:10B38000EAD15388002BF6D1374E938896F83020B7
:10B39000042ADBB250D096F82E10994236D096F897
:10B3A0002F409C4205D122B9214601F0F7FD00282B
:10B3B00047D0012004B070BD5388002BDBD1D38867
:10B3C000012BD8D129488DF80F3030B10192FEF70A
:10B3D000C9FE019A01460028CDD04C1E28461146D0
:10B3E00001230DF10F028DF80F4001F02DFEE0E773
:10B3F0001D4C11462846A687C4E90D3384F8303029
:10B4000084F83E3001F006FE0120B5E7022AD0D1D3
:10B41000B26BB3689B1A0324B36206F120020D23BA
:10B4200086F8304001F088FD0028C2D1104B1B681F
:10B43000DB07A0D500BE9FE7194601F0BDFD204601
:10B440009AE72146284601F0D7FD0028B1D1002314
:10B4500086F8303096F82F10034A28461F2301F053
:10B460006BFD0028A5D1E1E7507C002065A102001A
:10B47000F0ED00E02DE9F041AC4C94F83050012D96
:10B480008EB01E46074670D0032D47D035B1022D31
:10B4900000F08A8001200EB0BDE8F08194F82F30D2
:10B4A0008B42F7D11F2E40F09E80A14B22689A421A
:10B4B00040F09980E27B9F486368206263620120CC
:10B4C000A368A562282A84F82C50A56384F830006C
:10B4D000636300F0E3802A2A00F0C282002B00F0B0
:10B4E0003381207BC00940F02F81B3F5007F40F20B
:10B4F0001D8394F83C20A3620120022384F82C00D1
:10B5000084F8303022B942F2050384F83E20A38744
:10B51000384601F051FD94F83050B8E794F82E30D9
:10B520008B42B7D10D2EB5D1E37B282B00F0908252
:10B530002A2B00F08582804B23B1607B04F10F0140
:10B54000AFF30080002084F83000784A94F82F1080
:10B550001F23384601F0F0FC0028DCD1774B1B6834
:10B56000DA0700F19980002095E7E37B282B12D0C1
:10B570002A2B59D0A36B227B3344D209A36347D033
:10B58000626B9A420DD96D4B1B68DB07C3D500BEB9
:10B5900094F830507BE7D4E90D2333449342A363FE
:10B5A00075D3022384F8303094F82E10384601F019
:10B5B00023FD00287FF46EAFA368A26B934202D9EB
:10B5C000217BC9091ED19B1A0325A36294F82E1072
:10B5D0005B4A84F8305038460D2301F0ADFC00285A
:10B5E0007FF458AFBAE7042394F82E1084F8303073
:10B5F000384601F0E1FC384694F82F1001F0DCFCED
:10B60000002048E794F82E10384601F0D5FC41E7B9
:10B61000A38E4C4A607B04F10F01FEF733FE002835
:10B62000C0F2EC81A36BABE7E08A40BA80B218B1FC
:10B63000A368B3FBF0F080B2D4F81110A26B414DB7
:10B64000B2FBF0F309BA00FB13221944607B0096A9
:10B650002B46FEF74BFE0028C0F2308286425CD9B2
:10B66000361A002840F05882002194F82F200591C6
:10B67000072305A8CDE906168DF814708DF819106A
:10B680008DF818208DF8153001F0DAFA43E7FFF74E
:10B6900039FD94F83050FAE600BEFCE6E08A40BA84
:10B6A00080B2A3B900283FF47CAF94F83C3002226A
:10B6B000002184F82C2084F83020A162002B7FF434
:10B6C00073AF42F2050284F83E30A2876CE7257B17
:10B6D000ED090BD0002800F00A828342C0F04982B5
:10B6E000282A3846D3D0FFF779FD14E794F83C2098
:10B6F000A362022384F82C3084F83030002A7FF4CF
:10B7000007AF42F205020023A28784F83E30257B72
:10B71000ED09002D3FF4FCAEB7E1D4E90D2333442D
:10B720009342A363BFF43DAF3846DCE7507C002072
:10B73000555342435553425300000000F0ED00E0E2
:10B74000707C0020507A0020657B252A27D8DFE80E
:10B7500012F04F01260026001101260026002600C7
:10B7600026002600260026002600260026002600A9
:10B77000260026002600C2002600260026002600FD
:10B78000260026002600A800E2002600260026004B
:10B79000260026002600260082002600550094F888
:10B7A0003C20002A40F0D080BC4ABD499BB22846CC
:10B7B000FEF768FD0028C0F2C780002833D1A368D7
:10B7C000002B3FF4EEAEA16B94F83C205B1A0120F5
:10B7D0000221A36284F82C0084F8301022B942F2CE
:10B7E000050184F83E20A187002B3FF4DDAE237BCA
:10B7F000DB0940F04A8194F82F1089E6284604AA14
:10B8000005A9FEF72DFD059B002B00F0A781BDF8D3
:10B810001020002A00F0A281A049013B1BBA12BAF5
:10B82000C1E900320820A368002B40F08881A36B97
:10B8300094F83C205B4201200221A36284F82C0092
:10B8400084F83010002A7FF4AFAE42F2050384F88A
:10B850003E20A387A8E605AE00230DF10E02284680
:10B8600004A973600593B360FEF7FAFC049A002AFA
:10B8700000F07481BDF80E30002B00F06F8112BA19
:10B880005BBA08200221ADF81E3006928DF8170031
:10B890008DF81C1096E80700804B83E807000C2009
:10B8A000C1E7059B7F4A03F4000343F003030593BC
:10B8B000002A00F06C812846FEF73AFD9DF816300C
:10B8C000764A80F0010060F3C7138DF81630059BAF
:10B8D00013600420A7E74FF02033284600221F25DD
:10B8E0000692CDE90A33704E089307A909AA079377
:10B8F00009930D930C938DF818500DAB05AD05967B
:10B90000FEF738FC0FCD654E0FC60FCD0FC62B6866
:10B910003360242087E7654B002B3FF450AFE17C78
:10B920002846C1F3400301F001020909FEF7B4FC07
:10B9300000287FF444AF94F83C302BB943F6022240
:10B940000023A28784F83E30A268A36B94F83C10D1
:10B950000120D31A84F82C000220A36284F830005E
:10B9600021B942F2050084F83E10A087002A3FF476
:10B970001BAE39E794F83C2094F83D0094F83E1053
:10B98000DFF818C1DFF830E14FF000084FF0000396
:10B99000CDE90588CDE9078862F303038DF81630F9
:10B9A000F0220A23ADF824808DF820008DF82110B4
:10B9B0008DF814208DF81B3005AE0FCEACE80F00CB
:10B9C0003368ACF80030BEF1000F00F0DA80ACF163
:10B9D000100128464FF40072AFF300800028A4F84D
:10B9E0003C8084F83E80BFF6E8AE657B636BDBE6A7
:10B9F0002846FEF711FC00289DD0E0E6A268A36B64
:10BA000094F83C0084F82C50D11A0225A16284F8E5
:10BA1000305020B942F2050584F83E00A587002A7F
:10BA20003FF4AEAD00293FF4ABAD237BDB0900F062
:10BA3000A28094F82E10384601F0BEFAA36B9FE561
:10BA40001B4B002B3FF47EAD607BFEF765FC79E578
:10BA5000184B002B3FF476AD607BAFF3008071E5AF
:10BA6000E08A40BA80B2002B3FF41CAE257BED0982
:10BA70003FF430AE94F83C20A362022384F82C30CB
:10BA800084F83030002A00F0848094F82E10384674
:10BA900001F092FA94F83050F9E400BF507A002097
:10BAA0005F7C002031A302000080020299A2020004
:10BAB00019A302000000000000000000A36BA268B0
:10BAC0003344D11A43F60220A3630023A08784F8ED
:10BAD0003E3001200223A16284F82C0084F830302B
